:020000040000FA
:100000000C9464000C948C000C948C000C948C0068
:100010000C948C000C948C000C948C000C94200993
:100020000C948C000C948C000C948C000C948C0020
:100030000C948C000C948C000C948C000C948C0010
:100040000C94D4090C948C000C94A2090C947C0997
:100050000C948C000C948C000C948C000C948C00F0
:100060000C941E0A0C948C00000000002400270051
:100070002A000000000023002600290000000008DC
:10008000000201000003040700000000000000005F
:10009000010204081020408001020408102001021F
:1000A0000408102000000000250028002B00040494
:1000B0000404040404040202020202020303030310
:1000C000030302003D0B521011241FBECFEFD8E0F6
:1000D000DEBFCDBF23E0A6EBB1E001C01D92AE3C78
:1000E000B207E1F711E0A0E0B1E0E2E3F6E202C01E
:1000F00005900D92A63BB107D9F710E0C3E6D0E01A
:1001000004C02197FE010E940B11C236D107C9F726
:100110000E94060C0C940C130C94000096E0899F2E
:10012000D0011124A75BBC4F90967C936E935F9790
:1001300091E091969C939197E091B603F091B7036B
:100140009091B503992339F0309751F0811108C08F
:10015000809165030994309719F05C968C91FACFE1
:100160000895CF92DF92EF92FF920F931F9396E044
:10017000899FF0011124E75BFC4F11A2278D30A16C
:100180002130310551F178F02230310509F451C0A8
:100190002330310509F452C01F910F91FF90EF9069
:1001A000DF90CF9008956623B9F361E070E00E947C
:1001B0008E002FB7F89480917F0290918002A091D9
:1001C0008102B09182022FBF8093A1039093A2037A
:1001D000A093A303B093A403DFCF9FB7F894C0907C
:1001E0007F02D0908002E0908102F09082029FBF57
:1001F0000091A1031091A2032091A3033091A403C5
:10020000C01AD10AE20AF30A0091B3031091B403B1
:1002100030E020E00C151D052E053F0550F462E08E
:1002200070E01F910F91FF90EF90DF90CF900C94B2
:100230008E006111B1CF63E070E0F3CF70E060E059
:10024000F0CF08950895AF92BF92CF92DF92EF92D0
:10025000FF920F931F93CF93DF936C017B018B0170
:10026000040F151FEB015E01AE18BF08C017D107C0
:1002700059F06991D601ED91FC910190F081E02D4A
:10028000C6010995892B79F7C501DF91CF911F919F
:100290000F91FF90EF90DF90CF90BF90AF900895B7
:1002A000FC01538D448D252F30E0842F90E0821B7C
:1002B000930B541710F0CF96089501970895FC0101
:1002C000918D828D981761F0A28DAE0FBF2FB11D59
:1002D0005D968C91928D9F5F9F73928F90E00895B1
:1002E0008FEF9FEF0895FC01918D828D981731F06B
:1002F000828DE80FF11D858D90E008958FEF9FEFBF
:100300000895FC01918D228D892F90E0805C9F4F94
:10031000821B91098F739927089584E992E00E94C6
:10032000810121E0892B09F420E0822F089580E0EB
:1003300090E0892B29F00E948D0181110C9400001E
:100340000895FC01A48DA80FB92FB11DA35ABF4F6A
:100350002C91848D90E001968F739927848FA689C4
:10036000B7892C93A089B1898C91837080648C9318
:10037000938D848D981306C00288F389E02D8081C7
:100380008F7D80830895EF92FF920F931F93CF93F9
:10039000DF93EC0181E0888F9B8D8C8D98131AC0C0
:1003A000E889F989808185FF15C09FB7F894EE89A7
:1003B000FF896083E889F989808183708064808304
:1003C0009FBF81E090E0DF91CF911F910F91FF904F
:1003D000EF900895F62E0B8D10E00F5F1F4F0F73F7
:1003E0001127E02E8C8D8E110CC00FB607FCFACFB2
:1003F000E889F989808185FFF5CFCE010E94A101AE
:10040000F1CFEB8DEC0FFD2FF11DE35AFF4FF08282
:100410009FB7F8940B8FEA89FB8980818062CFCFE8
:10042000CF93DF93EC01888D8823B9F0AA89BB892B
:10043000E889F9898C9185FD03C0808186FD0DC016
:100440000FB607FCF7CF8C9185FFF2CF808185FF37
:10045000EDCFCE010E94A101E9CFDF91CF910895A8
:10046000833081F028F4813099F08230A9F008952A
:100470008730A9F08830C9F08430B1F480918000D1
:100480008F7D03C0809180008F77809380000895D6
:1004900084B58F7784BD089584B58F7DFBCF80911F
:1004A000B0008F778093B00008958091B0008F7D69
:1004B000F9CFCF93DF93282F30E0F901E458FF4FB5
:1004C0008491F901E057FF4FD491F901E255FF4FB4
:1004D000C491CC23A1F081110E943002EC2FF0E0F6
:1004E000EE0FFF1FEE58FF4FA591B491EC91ED2355
:1004F00081E090E009F480E0DF91CF91089580E001
:1005000090E0FACF862F0C9459021F93CF93DF937C
:10051000282F30E0F901E458FF4F8491F901E057AA
:10052000FF4FD491F901E255FF4FC491CC23A9F0BC
:10053000162F81110E943002EC2FF0E0EE0FFF1F0A
:10054000EC55FF4FA591B4918FB7F894EC91111130
:1005500008C0D095DE23DC938FBFDF91CF911F9130
:100560000895DE2BF8CF862F642F0C94850290918E
:10057000000189130BC0E2ECF0E0E4919FEF90934F
:100580000001E13049F028F0E23061F060E00C94C5
:10059000850210926E00FACF90916F009D7F90932C
:1005A0006F00F4CF909170009D7F9093700091E068
:1005B0009093B0009091B100987F94609093B100B7
:1005C0001092B300E3CFCF93DF9390E0FC01E057AC
:1005D000FF4F249182559F4FFC0184918823C9F0DD
:1005E00090E0880F991FFC01E859FF4FA591B49145
:1005F000FC01EC55FF4FC591D49161110DC09FB71F
:10060000F8948C91209582238C93888128232883C9
:100610009FBFDF91CF910895623051F49FB7F89456
:100620003C91822F809583238C93E8812E2BEFCFF2
:100630008FB7F894EC912E2B2C938FBFEACF8F922B
:100640009F92AF92BF92CF92DF92EF92FF92CF93A1
:100650006C01809100018B3069F08F3F09F470C00C
:10066000CF91FF90EF90DF90CF90BF90AF909F9091
:100670008F900895E2ECF0E0C491C7FDF1CF61E006
:100680008BE00E94E302CC2319F0C23009F022C1B2
:10069000F12CE12C60E072E18AE790E0A70196017D
:1006A0000E94CA1049015A01DA01C9010197A10942
:1006B000B1098F3F9105A105B10509F00CF4EEC019
:1006C00060E472E48FE090E0A70196010E94CA10F6
:1006D0002150310941095109C23009F0A0C082E01E
:1006E0002F3F31054105510509F00CF488C160E93F
:1006F00070ED83E090E0A70196010E94CA1021509E
:1007000031094109510983E02F3F31054105510568
:1007100009F00CF474C168E478EE81E090E0A70180
:1007200096010E94CA1021503109410951092F3FF9
:1007300031054105510511F00CF08FC084E05FC117
:100740008BE080930001E2ECF0E0C491CF3F09F42C
:1007500087CFC13021F150F0C23009F43EC0C7FD4F
:100760007FCF61E08BE00E94E3028FCF14BC15BC09
:1007700084B5826084BD85B5816085BDE9EBF0E01C
:10078000E491F0E0EE0FFF1FEC55FF4F859194913F
:10079000EBE9F0E0E491E0938702C0E070CF1092C3
:1007A0008000109281008091810088608093810098
:1007B00080918100816080938100E9EBF0E0E49119
:1007C000F0E0EE0FFF1FEC55FF4F85919491EBE9A0
:1007D000F0E0E491E093860252CF1092B0001092C4
:1007E000B1008091B00082608093B0008091B10030
:1007F00081608093B100E9EBF0E0E491F0E0EE0F6E
:10080000FF1FEC55FF4F8591949190938502809343
:100810008402EBE9F0E0E491E093830230CF2F3FD4
:1008200031054105510509F00CF452C068E478EE39
:1008300081E090E0A70196010E94CA102150310981
:1008400041095109CC2309F4AFC02F3F31054105BF
:10085000510511F00CF0B0C071CF64E274EF80E08C
:1008600090E0A70196010E94CA1021503109410968
:10087000510985E02F3F31054105510509F008F484
:10088000BEC062E17AE780E090E0A70196010E9495
:10089000CA1021503109410951099CC09C0181E0D5
:1008A000C111ADC095B5987F892B85BD27BD8FEF50
:1008B0009FEFDC018093900290939102A0939202AB
:1008C000B093930280916E00826080936E00C8CED8
:1008D00082E0E6CFF12CE12C60E072E18AE790E063
:1008E000A70196010E94CA102150310941095109FE
:1008F00091E02115310581E0480751056CF068E46D
:1009000078EE81E090E0A70196010E94CA10215084
:1009100031094109510993E0C13009F076C0809155
:100920008100887F892B80938100309389002093F8
:1009300088008FEF9FEFDC0180938C0290938D02F3
:10094000A0938E02B0938F0280916F00826080939B
:100950006F0086CE2093B3008FEF9FEFDC01809372
:10096000880290938902A0938A02B0938B028091AF
:10097000700082608093700073CE84E02F3F310559
:100980004105510509F008F48DCF9AE0B594A7947C
:10099000979487949A95D1F7A50194012150310934
:1009A0004109510985E07ECF83E02F3F31054105A4
:1009B000510509F00CF476CF62E17AE780E090E02F
:1009C000A70196010E94CA1021503109410951091D
:1009D000CC2399F286E02F3F31054105510579F08E
:1009E00070F08AE0B594A794979487948A95D1F78C
:1009F000A5019401215031094109510987E09091E5
:100A0000B100987F892B8093B100C13009F48DCF5C
:100A1000C23009F49FCFC11123CE48CF862F642F57
:100A20000C94E3028E50806480937C0080917A0065
:100A3000806480937A0080917A0086FDFCCF80915B
:100A400078009091790008953FB7F89480916902F9
:100A500090916A02A0916B02B0916C0226B5A89B9E
:100A600005C02F3F19F00196A11DB11D3FBFBA2F40
:100A7000A92F982F8827BC01CD01620F711D811D00
:100A8000911D42E0660F771F881F991F4A95D1F785
:100A900008958F929F92AF92BF92CF92DF92EF9282
:100AA000FF924B015C010E9424056B017C010E94B6
:100AB00024056C197D098E099F09683E73408105E4
:100AC0009105A8F321E0821A9108A108B10888EEE7
:100AD000C80E83E0D81EE11CF11C81149104A1040E
:100AE000B10429F7FF90EF90DF90CF90BF90AF90C7
:100AF0009F908F90089508952091F701260F332736
:100B0000331F21323105ECF420914002FC0190E0CA
:100B100080E0243069F082E00895A091F7012191EE
:100B2000AC0149525E4FA40FB52FB11D2C93019615
:100B3000861798F38091F701680F6093F70180E0C2
:100B4000089581E008951092400281E080933F0271
:100B500010921A0261E082E10E94850261E083E165
:100B60000E948502E9EBF0E080818E7F80838081A6
:100B70008D7F808388E48093B80085E48093BC00F7
:100B80000895CF93DF9391E09093D6018823B9F035
:100B9000C091B800D091BA008091BC008A7B80934C
:100BA000BC0060E082E10E94850260E083E10E9477
:100BB00085020E94A305D093BA00C093B800DF91CC
:100BC000CF9108950895E091740280917302E8171F
:100BD00030F4F0E0EA54FE4F808190E008958FEF0A
:100BE0009FEF089590917402809173022FEF3FEF71
:100BF000981748F4E92FF0E0EA54FE4F208130E0E6
:100C00009F5F90937402C90108958091730290913F
:100C10007402891B990B0895CF92DF92EF92FF9295
:100C20000F931F93CF93DF937C01CB018A01209117
:100C30004602222389F0EB016B01C40ED51ECC15B0
:100C4000DD0569F06991D701ED91FC910190F0818A
:100C5000E02DC7010995F3CF642F0E947C05C801E0
:100C6000DF91CF911F910F91FF90EF90DF90CF9088
:100C70000895CF93DF931F92CDB7DEB7698320919C
:100C800046022223F9F020917102203258F021E02F
:100C900030E0FC013383228390E080E00F90DF910D
:100CA000CF91089580917202E82FF0E0E95BFD4F4B
:100CB000998190838F5F809372028093710281E0AB
:100CC00090E0ECCF61E0CE0101960E947C05F7CF69
:100CD000CF92DF92EF92FF920F931F93CF93DF9308
:100CE000FC01C48121E020934602C0936702109268
:100CF0007202109271028385682B81E393E00E9457
:100D00003906D0917102D13208F092C00E942405B8
:100D10006B017C0180914002811165C082E080936B
:100D2000400281E080933F028FEF80933E02109259
:100D30003D02D0933C02A7E4B2E0ECE1F2E080E0B7
:100D4000D81385C010921B0280911B02CC0FC82BB8
:100D5000C0931B0280911A02813009F07CC010926E
:100D60001A020E9424056B017C0180911B02809372
:100D7000BB008091420290914302A0914402B09145
:100D80004502892B8A2B8B2B99F00E942405009118
:100D900042021091430220914402309145026C19A5
:100DA0007D098E099F090617170728073907E0F103
:100DB0008091BC0083FDD9CF85EC8093BC000E945C
:100DC00024056B017C0180914002823009F445C00A
:100DD00080913E028F3F61F180913E02803241F16D
:100DE00080913E0225C08091420290914302A091E1
:100DF0004402B0914502892B8A2B8B2B09F48ACFB0
:100E00000E94240500914202109143022091440265
:100E1000309145026C197D098E099F090617170745
:100E20002807390708F076CF809141020E94C1055A
:100E3000109272021092710210924602DF91CF91CD
:100E40001F910F91FF90EF90DF90CF9008959D91AB
:100E500091938F5F75CF85EEB0CF809142029091D4
:100E60004302A0914402B0914502892B8A2B8B2B1F
:100E700009F4A9CF0E942405009142021091430277
:100E800020914402309145026C197D098E099F0919
:100E9000061717072807390708F095CFC5CF90E048
:100EA00080E008950F931F93CF938C01C62F0E946B
:100EB00068066C2F6460C8010E9468066C2F6B7F07
:100EC000C8010E94680683EC90E00197F1F7CF918A
:100ED0001F910F9108950F931F93CF93DF938C0170
:100EE000D62FC42F607F642B0E94520780E1D89FC9
:100EF000B00111246C2BC801DF91CF911F910F918C
:100F00000C94520740E061E08EEB93E00E946B0787
:100F10008BE39FE10197F1F70895CF93DF93CDB76E
:100F2000DEB728970FB6F894DEBF0FBECDBF98E0AE
:100F3000EAE1F1E0DE01119601900D929A95E1F758
:100F40009091C703961708F46FEF262F30E0220F19
:100F5000331F41E050E04C0F5D1F240F351FF90196
:100F60006081680F606840E08EEB93E028960FB6D2
:100F7000F894DEBF0FBECDBFDF91CF910C946B070D
:100F800041E00E946B0781E090E00895FC01019030
:100F90000020E9F73197AF01481B590BBC018EEBDC
:100FA00093E00C9423018BE00E94B7020E94820719
:100FB00060E081E00E948D078CE591E00E94C60709
:100FC00061E081E00C948D0780914303909144038C
:100FD00060913D0370913E030097E1F0611571054A
:100FE000B9F42091470330914803232BB1F0FC0161
:100FF000808190E008958091410390914203892B74
:1010000061F0FB01808190E09195819591090895AF
:101010000C94FC126115710571F790E080E0089561
:10102000CF93DF93EC0188819981009711F00E94A2
:10103000AD11198218821D821C821B821A82DF91D7
:10104000CF910895FC0180819181009711F00C945B
:10105000AD1108950F931F93CF93DF93EC01888117
:101060009981009759F02A813B812617370730F084
:1010700081E0DF91CF911F910F9108958B016F5FF8
:101080007F4F0E943612009759F0998388831B8303
:101090000A832C813D81232B59F7FC011082E8CF74
:1010A00080E0E7CFEF92FF920F931F93CF93DF93F0
:1010B0006115710541F480E0DF91CF911F910F918F
:1010C000FF90EF90089541155105B1F07B01EC01BF
:1010D0000C811D81040F151FB8010E942A08882366
:1010E00051F3288139818C819D81B701820F931F33
:1010F0000E9405131D830C8381E0DECFEF92FF92E7
:101100000F931F93CF93DF93EC017B018A01BA0108
:101110000E942A0881110BC0CE010E941008CE0146
:10112000DF91CF911F910F91FF90EF9008951D8354
:101130000C83B701888199810E940513F0CFEF924B
:10114000FF920F931F93CF93DF93CDB7DEB76297D4
:101150000FB6F894DEBF0FBECDBF8C01CB01F801F6
:101160001182108213821282158214824AE09E013B
:101170002F5F3F4F7901B9010E945E10F701019086
:101180000020E9F73197AF014E195F09B701C80197
:101190000E947E0862960FB6F894DEBF0FBECDBFE8
:1011A000DF91CF911F910F91FF90EF900895FC0177
:1011B000118210821382128215821482FB01019027
:1011C0000020E9F73197AF01461B570B0C947E08BE
:1011D00085ED8093BC008091420290914302A091E2
:1011E0004402B09145020796A11DB11D23E0B695BA
:1011F000A795979587952A95D1F72091BC0024FD56
:1012000003C010924002089540914202509143025F
:101210006091440270914502452B462B472B69F3A0
:101220000097A105B10541F025E32A95F1F70000EB
:101230000197A109B109E1CF809141020C94C10548
:101240001F920F920FB60F9211242F933F934F933B
:101250005F936F937F938F939F93AF93BF93EF931E
:10126000FF938091880290918902A0918A02B091A7
:101270008B02892B8A2B8B2BD1F190918302E091E9
:101280008402F09185028081892780838091880281
:1012900090918902A0918A02B0918B0218161906CA
:1012A0001A061B069CF48091880290918902A091F5
:1012B0008A02B0918B020197A109B109809388023B
:1012C00090938902A0938A02B0938B02FF91EF91D1
:1012D000BF91AF919F918F917F916F915F914F914E
:1012E0003F912F910F900FBE0F901F9018958091F6
:1012F00000010E94B702EACF1F920F920FB60F9221
:1013000011242F933F934F935F936F937F938F930A
:101310009F93AF93BF93EF93FF9384E992E00E9472
:10132000A101FF91EF91BF91AF919F918F917F911B
:101330006F915F914F913F912F910F900FBE0F9042
:101340001F9018951F920F920FB60F9211242F9392
:101350008F939F93EF93FF93E091A402F091A502E6
:101360008081E091AA02F091AB0282FD1BC09081C6
:101370008091AD028F5F8F732091AE02821741F092
:10138000E091AD02F0E0EC56FD4F958F8093AD02F9
:10139000FF91EF919F918F912F910F900FBE0F9022
:1013A0001F9018958081F4CF1F920F920FB60F9265
:1013B00011242F933F938F939F93AF93BF9380916B
:1013C0007F0290918002A0918102B09182023091BF
:1013D000680223E0230F2D3758F50196A11DB11D9A
:1013E0002093680280937F0290938002A0938102F1
:1013F000B09382028091690290916A02A0916B027F
:10140000B0916C020196A11DB11D80936902909369
:101410006A02A0936B02B0936C02BF91AF919F914F
:101420008F913F912F910F900FBE0F901F901895A5
:1014300026E8230F0296A11DB11DD2CF1F920F9255
:101440000FB60F9211242F933F934F935F936F9397
:101450007F938F939F93AF93BF93EF93FF9380916D
:10146000B900887F803609F44AC0F0F5883209F463
:10147000A7C018F5803109F49BC0B8F4882309F49B
:10148000F9C0883009F494C0FF91EF91BF91AF91FA
:101490009F918F917F916F915F914F913F912F918C
:1014A0000F900FBE0F901F901895883109F488C0D7
:1014B000803251F780933E0214C0803409F49DC0FD
:1014C00040F48033B9F38833F9F680933E0285EC1B
:1014D000B0C0803509F485C0883509F496C08834D9
:1014E00099F60E94E808D0CF883909F48CC038F505
:1014F000883729F050F4883611F0803729F683E0D8
:10150000809340021092190257C0883809F47BC0BA
:10151000803919F0803809F0B7CF809119028032F4
:1015200008F071C0E091190281E08E0F80931902DA
:101530008091BB00F0E0E750FE4F80833DC0803BD0
:1015400039F0E0F4803A09F479C0883A09F09CCF88
:1015500084E0809340021092F8011092F701E0912C
:101560006F02F091700209958091F70181110FC00F
:1015700081E08093F7011092D70109C0803C09F403
:10158000A6CF883C09F4A3CF883B09F07DCFE0913A
:10159000F80181E08E0F8093F801F0E0E952FE4FF0
:1015A00080818093BB009091F8018091F70129C060
:1015B00080911B028093BB0085EC8093BC0064CFBC
:1015C00090913D0280913C02981758F5E0913D02C0
:1015D00081E08E0F80933D02F0E0E45EFD4F80815C
:1015E000E9CFE0913D0281E08E0F80933D02809132
:1015F000BB00F0E0E45EFD4F808390913D0280915E
:101600003C029817C8F285E8D8CFE0913D0281E00E
:101610008E0F80933D028091BB00F0E0E45EFD4FB1
:10162000808380913F0281115CCF81E080931A0218
:1016300084EA8093BC001092400226CF85EC809310
:10164000BC001092400280911902803230F4E09187
:101650001902F0E0E750FE4F10826091190270E02D
:10166000E0916D02F0916E0289EF91E00995109280
:1016700019020ACF10923E0234CF109297021092B4
:10168000960288EE93E0A0E0B0E0809398029093F9
:101690009902A0939A02B0939B0226E231E0309324
:1016A00095022093940225EC30E03093A102209320
:1016B000A00224EC30E03093A3022093A20220EC9D
:1016C00030E03093A5022093A40221EC30E0309367
:1016D000A7022093A60222EC30E03093A9022093C7
:1016E000A80226EC30E03093AB022093AA021092BD
:1016F000AD021092AE021092AF021092B0021092A0
:101700003403109233038093350390933603A093F0
:101710003703B093380388E391E0909332038093CA
:1017200031031092C1031092C00384E591E09093BD
:10173000BF038093BE0380E28093C20380E1809365
:10174000C60382E08093C7031092C80388E08093A9
:10175000C9036AE871E088EB93E00E94D708109211
:101760004B0310924F0310924E03109250038AE4E1
:1017700091E090934A0380934903E5E6F3E01082F9
:10178000148213821582369683E0E13AF807B9F79E
:1017900084E091E09093AC038093AB0381E091E00F
:1017A0009093AE038093AD0384E08093AF0383E016
:1017B0008093B00388E091E09093AA038093A903FB
:1017C0008AE090E09093B2038093B10384EF91E0BC
:1017D0009093B4038093B3031092B7031092B603AF
:1017E0001092A5031092A6031092A7031092A803CB
:1017F0001092B50368E671E083E493E00E94D70895
:101800006AE871E08DE393E00C94D708CF93DF93FF
:10181000CDB7DEB762970FB6F894DEBF0FBECDBF6F
:10182000789484B5826084BD84B5816084BD85B5BB
:10183000826085BD85B5816085BD80916E008160C7
:1018400080936E001092810080918100826080936D
:10185000810080918100816080938100809180006F
:101860008160809380008091B10084608093B1009A
:101870008091B00081608093B00080917A00846094
:1018800080937A0080917A00826080937A008091C0
:101890007A00816080937A0080917A0080688093DA
:1018A0007A001092C100E091A402F091A50282E0BA
:1018B0008083E091A002F091A1021082E091A20247
:1018C000F091A3028FEC80831092AC02E091A80209
:1018D000F091A90286E08083E091A602F091A70230
:1018E000808180618083E091A602F091A7028081CF
:1018F00088608083E091A602F091A70280818068D1
:101900008083E091A602F091A70280818F7D808381
:1019100061E08DE00E94E30261E08CE00E94E3025E
:1019200060E08EE00E94E30260E08FE00E94E3024C
:1019300061E08BE00E94E302109274021092730245
:1019400010927202109271020E94A30581E291E04E
:101950009093700280936F0282E291E090936E0206
:1019600080936D021092C3038091C703823018F0F8
:1019700098E09093C3039091C803992339F0813084
:1019800029F48091C30384608093C30362E370E011
:1019900080E090E00E9449056091C9038EEB93E0DE
:1019A0000E94680668EE73E080E090E00E944905BE
:1019B00060E38EEB93E00E9452070BE416E4C8014B
:1019C0000197F1F760E38EEB93E00E945207C801A4
:1019D0000197F1F760E38EEB93E00E94520783E5F5
:1019E00092E00197F1F760E28EEB93E00E945207DC
:1019F0006091C303606240E08EEB93E00E946B074E
:101A000084E08093C40340E06CE08EEB93E00E949E
:101A10006B070E94820782E08093C50340E066E086
:101A20008EEB93E00E946B0740E062E08EEB93E068
:101A30000E946B078BE39FE10197F1F788E08093A9
:101A4000C90360E08EEB93E00E9468060E94D30712
:101A5000412C512C32014394AA24AA94BA2C81E03F
:101A60008093B5038FB7F89440917F025091800224
:101A700060918102709182028FBF8091A503909145
:101A8000A603A091A703B091A803481B590B6A0BAA
:101A90007B0B8091B1039091B203B0E0A0E084177A
:101AA0009507A607B70708F01CC110E08091AF03A7
:101AB000181760F4E091AB03F091AC03E10FF11D56
:101AC00062E080810E94E3021F5FF0CF312C8091A1
:101AD000B003381608F061C0E32CF12CE091AD039F
:101AE000F091AE03EE0DFF1D61E080810E94E302E4
:101AF000E091AD03F091AE03EE0DFF1D60E080813B
:101B00000E948502D301C201032C04C0880F991FD3
:101B1000AA1FBB1F0A94D2F74C016C01C094D09449
:101B2000212C8091AF03281608F5022D10E0E091DA
:101B3000AB03F091AC03E00FF11F80810E945902CA
:101B40000C5F1F4F000F111FF801E75BFC4F892B43
:101B500041F48081918188299929918380832394FC
:101B6000E0CF808191818C219D21F7CFE091AD0361
:101B7000F091AE03EE0DFF1D61E080810E948502B1
:101B80008091AD039091AE03E80EF91E60E0F7017D
:101B900080810E94E30233949ACF09E413E0F801B4
:101BA000878D90A1892B21F4148EB68EA58E11A25B
:101BB000369653E0E538F50799F7D12C8091AF03BD
:101BC000D81608F053C0C12CED2CF12CEE0CFF1CE4
:101BD000C7018F5A9C4F7C012091B003C21608F0B8
:101BE00043C0F701608171810C2C02C07695679526
:101BF0000A94E2F7D29E900111242C0D311DE9E4E4
:101C0000F3E080E0458D568D2417350709F448C26E
:101C10008F5F36968A30B1F760FF24C0E9E4F3E0C5
:101C200090E080E0448D411118C0E091A903F0914B
:101C3000AA03E20FF31F408156E0589FF001599F1D
:101C4000F00D1124E75BFC4F448F368F258F10A2D7
:101C5000178E61E00E94B10005C0019636968A3069
:101C6000910501F7C394B8CFD394A8CF80E0F801D1
:101C700091A19111892F0A5F1F4FF3E005381F07CB
:101C8000B1F79FB7F89440917F0250918002609124
:101C90008102709182029FBF4093A5035093A603D7
:101CA0006093A7037093A8038823D9F080916A03F7
:101CB0008823B9F08091680390916903019789F4B2
:101CC00010916503111110C080E090E0892B09F498
:101CD000C6CE0E948D01882309F4C1CE0E94000067
:101CE000BECE1092B503F0CF1332A1F01A3209F430
:101CF0007CC1612F8EEB93E00E94C00719831A828A
:101D000041E050E0BE016F5F7F4F8DE393E00E94A2
:101D10005208DACF20914703309148038091410364
:101D2000909142032817390709F00EC10E94E40779
:101D3000892B09F009C10E94820760E080E00E94BF
:101D40008D078EE691E00E94C60768EE73E080E0A2
:101D500090E00E944905209147033091480380910B
:101D60004103909142032817390709F0ADCF0E9433
:101D7000E407892B09F0A8CF8BE00E94B7020E94EC
:101D800082078EE00E94120590937A028093790276
:101D90008FE00E9412059093780280937702BC0135
:101DA000CE0101960E949F086091790270917A029B
:101DB000CE0107960E949F086FE771E0CE010D9655
:101DC0000E94D7084B855C856F817885CE010D9682
:101DD0000E945208811104C0CE010D960E94100885
:101DE00044E050E063E871E0CE010D960E94520895
:101DF000811104C0CE010D960E9410084D815E81B4
:101E000069817A81CE010D960E945208811104C029
:101E1000CE010D960E9410086D857E8561157105B5
:101E200009F47FC049895A8988EB93E00E947E08B3
:101E3000CE010D960E942208CE0107960E9422082C
:101E4000CE0101960E94220860E080E00E948D078A
:101E50004091BC035091BD036091B8037091B903E8
:101E60008EEB93E00E9423010091790210917A0297
:101E70008091770290917802081B190B10937602DB
:101E80000093750261E08CE00E948D07B801CE01DD
:101E900007960E949F081A8219821C821B821E824A
:101EA0001D826F8178856115710531F04B855C85E8
:101EB000CE0101960E947E0842E050E068E871E0A1
:101EC000CE0101960E945208811104C0CE010196F4
:101ED0000E9410084D815E8169817A818EEB93E0CA
:101EE0000E942301CE0101960E942208CE0107968E
:101EF0000E942208809175029091760261E097FD20
:101F000015C080E00E948D078BE891E00E94C60713
:101F100060E08DE00E94850261E08CE00E94850215
:101F200014CF88EB93E00E94100882CF80E00E94DB
:101F30008D0784E991E00E94C60760E08CE00E9472
:101F4000850261E08DE0EACF0E94820760E082E0D6
:101F50000E948D078DE991E00E94C60768EE73E04C
:101F600080E090E00E9449050E94D30750E040E0E5
:101F70006AE871E08DE393E00E947E0880917B0225
:101F800090917C02019690937C0280937B02039750
:101F90000CF49ACE0E94820760E082E00E948D07D6
:101FA00088EA91E00E94C6070CEB12E0C8010E948B
:101FB0001F036FE070E080E090E00E9449050F5F32
:101FC0001F4F003253E0150789F7C8010E941F0315
:101FD0006FE070E080E090E00E9449050150110937
:101FE0000C3B82E0180789F76FCE80917D029091BB
:101FF0007E02019690937E0280937D02813091054E
:1020000059F1029709F060CE81E38093080182E3E1
:102010008093090183E380930A0184E380930B0199
:1020200085E380930C0186E380930D0187E3809321
:102030000E0188E380930F0189E3809310011093D0
:10204000110180E38093120183E2809313011092C7
:102050007E0210927D0238CE81E68093080182E6EE
:102060008093090183E680930A0184E680930B0143
:1020700085E680930C0186E680930D0187E68093C8
:102080000E0188E680930F0189E68093100110937A
:1020900011018AE68093120183E28093130114CE2A
:1020A0006170D8CD8DE393E00E94220883E493E031
:1020B0000E94220888EB93E00C942208BB274A3048
:1020C00031F4992322F4BDE2909581959F4F0C94B1
:1020D0006A10BB27FB015527AA27880F991FAA1F43
:1020E000A41710F0A41B83955051B9F7A05DAA3333
:1020F00008F0A95DA193009779F7B111B1931192FE
:10210000CB010C948310DC01FC01672F71917723C4
:10211000E1F7329704C07C916D9370836291AE17A2
:10212000BF07C8F308952F923F924F925F926F922C
:102130007F928F929F92AF92BF92CF92DF92EF9257
:10214000FF920F931F93CF93DF93CDB7DEB7CA1BD8
:10215000DB0B0FB6F894DEBF0FBECDBF09942A8803
:10216000398848885F846E847D848C849B84AA84AB
:10217000B984C884DF80EE80FD800C811B81AA8138
:10218000B981CE0FD11D0FB6F894DEBF0FBECDBF03
:10219000ED010895052E97FB1EF400940E94E110B6
:1021A00057FD07D00E94E91007FC03D04EF40C94B1
:1021B000E11050954095309521953F4F4F4F5F4F1F
:1021C000089590958095709561957F4F8F4F9F4FA3
:1021D0000895A1E21A2EAA1BBB1BFD010DC0AA1F68
:1021E000BB1FEE1FFF1FA217B307E407F50720F080
:1021F000A21BB30BE40BF50B661F771F881F991FFB
:102200001A9469F760957095809590959B01AC0143
:10221000BD01CF010895EE0FFF1F0590F491E02D51
:1022200009940F931F93CF93DF938230910510F49D
:1022300082E090E0E091CC03F091CD0330E020E02B
:10224000B0E0A0E0309799F42115310509F44AC0B7
:10225000281B390B24303105D8F58A819B81611503
:10226000710589F1FB0193838283FE0111C04081D6
:1022700051810281138148175907E0F04817590727
:1022800099F4109761F012960C93129713961C9381
:102290003296CF01DF91CF911F910F910895009356
:1022A000CC031093CD03F4CF2115310551F0421723
:1022B000530738F0A901DB019A01BD01DF01F801E4
:1022C000C1CFEF01F9CF9093CD038093CC03CDCF55
:1022D000FE01E20FF31F819391932250310939835C
:1022E0002883D7CF2091CA033091CB03232B41F40D
:1022F00020911601309117013093CB032093CA032C
:1023000020911401309115012115310541F42DB7AB
:102310003EB74091180150911901241B350BE091F3
:10232000CA03F091CB03E217F307A0F42E1B3F0B77
:102330002817390778F0AC014E5F5F4F2417350737
:1023400048F04E0F5F1F5093CB034093CA03819315
:1023500091939FCFF0E0E0E09CCFCF93DF93009785
:10236000E9F0FC01329713821282A091CC03B09164
:10237000CD03ED0130E020E01097A1F42081318100
:10238000820F931F2091CA033091CB03281739077E
:1023900009F061C0F093CB03E093CA03DF91CF91C2
:1023A0000895EA01CE17DF07E8F54A815B819E01B7
:1023B00041155105B1F7E901FB83EA834991599130
:1023C000C40FD51FEC17FD0761F48081918102963F
:1023D000840F951FE90199838883828193819B8370
:1023E0008A83F0E0E0E012968D919C91139700971C
:1023F000B9F52D913C911197CD010296820F931F53
:102400002091CA033091CB032817390739F630974A
:1024100051F51092CD031092CC03B093CB03A0934F
:10242000CA03BCCFD383C28340815181840F951FDF
:10243000C817D90761F44E5F5F4F88819981480FB3
:10244000591F518340838A819B8193838283211505
:10245000310509F0B0CFF093CD03E093CC039ECFCC
:10246000FD01DC01C0CF13821282D7CFB0E0A0E023
:10247000ECE3F2E10C9495108C01009751F4CB0140
:102480000E9411118C01C801CDB7DEB7E0E10C94B8
:10249000B110FC01E60FF71F9C0122503109E21731
:1024A000F30708F49DC0D901CD91DC911197C617AF
:1024B000D70798F0C530D10530F3CE0104978617C1
:1024C000970708F3C61BD70B2297C193D1936D933F
:1024D0007C93CF010E94AD11D6CF5B01AC1ABD0A2F
:1024E0004C018C0E9D1EA091CC03B091CD03512CBC
:1024F000412CF12CE12C109731F58091CA03909179
:10250000CB038815990509F05CC04616570608F0FC
:1025100058C08091140190911501009741F48DB736
:102520009EB74091180150911901841B950BE81733
:10253000F90708F055C0F093CB03E093CA03F90103
:1025400071836083A0CF8D919C91119712966C90AE
:10255000129713967C901397A815B90559F56C013D
:1025600042E0C40ED11CCA14DB0420F1AC014A19AC
:102570005B09DA011296159780F0628273825183AB
:102580004083D9016D937C93E114F10471F0D7017C
:102590001396FC93EE93129776CF22968C0F9D1F85
:1025A000F90191838083F301EFCFF093CD03E093A2
:1025B000CC0369CF4816590608F42C017D01D301DC
:1025C0009ACFCB010E9411117C01009749F0AE0116
:1025D000B8010E94F312C8010E94AD11870153CFC8
:1025E00010E000E050CFFB01DC0102C001900D9231
:1025F00041505040D8F70895FB01DC018D910190C6
:1026000080190110D9F3990B0895FB01DC010190A9
:102610000D920020E1F7089510E0C3E6D0E004C079
:10262000FE010E940B112196C436D107C9F7F89418
:10263000FFCFFF090807060504033132333435366E
:102640003738392A30230000CE03800000004000D4
:102650001400540000000000C301230150011002C7
:1026600081015F0173010000000039060C064F076D
:10267000E2050506F205E305000000000E05B302C1
:10268000820200000000C00723014F077B05496E4E
:10269000736572742070617373003161323362004C
:1026A00057656C636F6D65206D7574617373696DCB
:1026B0000041303A002041313A00202000706F7311
:1026C0006974697665006E6567617469766500573F
:1026D000524F4E47205041535300455850495245A0
:0826E000442050415353000057
:107E0000112484B714BE81FFF0D085E080938100F7
:107E100082E08093C00088E18093C10086E0809377
:107E2000C20080E18093C4008EE0C9D0259A86E02C
:107E300020E33CEF91E0309385002093840096BBD3
:107E4000B09BFECF1D9AA8958150A9F7CC24DD24C4
:107E500088248394B5E0AB2EA1E19A2EF3E0BF2EE7
:107E6000A2D0813461F49FD0082FAFD0023811F036
:107E7000013811F484E001C083E08DD089C08234E0
:107E800011F484E103C0853419F485E0A6D080C0E4
:107E9000853579F488D0E82EFF2485D0082F10E0AE
:107EA000102F00270E291F29000F111F8ED06801E7
:107EB0006FC0863521F484E090D080E0DECF843638
:107EC00009F040C070D06FD0082F6DD080E0C81688
:107ED00080E7D80618F4F601B7BEE895C0E0D1E017
:107EE00062D089930C17E1F7F0E0CF16F0E7DF06D8
:107EF00018F0F601B7BEE89568D007B600FCFDCFD4
:107F0000A601A0E0B1E02C9130E011968C91119780
:107F100090E0982F8827822B932B1296FA010C0160
:107F200087BEE89511244E5F5F4FF1E0A038BF0790
:107F300051F7F601A7BEE89507B600FCFDCF97BE46
:107F4000E89526C08437B1F42ED02DD0F82E2BD052
:107F50003CD0F601EF2C8F010F5F1F4F84911BD097
:107F6000EA94F801C1F70894C11CD11CFA94CF0C13
:107F7000D11C0EC0853739F428D08EE10CD085E9AC
:107F80000AD08FE07ACF813511F488E018D01DD067
:107F900080E101D065CF982F8091C00085FFFCCF94
:107FA0009093C60008958091C00087FFFCCF809118
:107FB000C00084FD01C0A8958091C6000895E0E648
:107FC000F0E098E1908380830895EDDF803219F02E
:107FD00088E0F5DFFFCF84E1DECF1F93182FE3DFCA
:107FE0001150E9F7F2DF1F91089580E0E8DFEE27F6
:047FF000FF270994CA
:027FFE00040479
:00000001FF
